:100000000C9434000C9451000C9451000C94510049
:100010000C9451000C9451000C9451000C9451001C
:100020000C9451000C9451000C9451000C9451000C
:100030000C9451000C9451000C9451000C945100FC
:100040000C9451000C9451000C9451000C945100EC
:100050000C9451000C9451000C9451000C945100DC
:100060000C9451000C94510011241FBECFEFD8E026
:10007000DEBFCDBF11E0A0E0B1E0EEE8F1E002C0EC
:1000800005900D92AE30B107D9F711E0AEE0B1E0C6
:1000900001C01D92AF30B107E1F70E949F000C94A0
:1000A000C5000C9400008091000184B98091010189
:1000B00087B980910E018AB985B1876085B918B872
:1000C000809102018BB90895282F6AE00E94B9003F
:1000D000E92FF0E0ED5FFE4FA081822F0E94B90072
:1000E0000E94B900E92FF0E0ED5FFE4F5081822FB2
:1000F00064E60E94B900E82FF0E0ED5FFE4FE0817A
:1001000040E02AEF30E0A8B985B1876085B92A9828
:10011000C9010197F1F758B985B1876085B9299868
:10012000C9010197F1F7E8B985B1876085B92898C9
:10013000C9010197F1F74F5F4A3F29F708950F93DF
:100140001F930E94530010E010C01EEF00E0489B78
:1001500010E0812F0E946400002321F01F3FA9F3CB
:100160001F5F03C0112319F411E001E0F0CF11501B
:10017000EECF991B79E004C0991F961708F0961BE3
:0E018000881F7A95C9F780950895F894FFCFEF
:0E018E00FFFFFF3F065B4F666D7D077F6F0032
:00000001FF
