:100000000C9434000C9449000C9449000C94490061
:100010000C9449000C9449000C9449000C9449003C
:100020000C9449000C9449000C9449000C9449002C
:100030000C9449000C9449000C9449000C9449001C
:100040000C9449000C9449000C9449000C9449000C
:100050000C9449000C9449000C9449000C944900FC
:100060000C9449000C94490011241FBECFEFD8E036
:10007000DEBFCDBF11E0A0E0B1E0EEE7F1E002C0ED
:1000800005900D92AC30B107D9F70E9491000C9405
:10009000BD000C9400008091000184B980910101A1
:1000A00087B985B1876085B918B80895282F6AE0A7
:1000B0000E94B100E92FF0E0EE5FFE4FA081822F99
:1000C0000E94B1000E94B100E92FF0E0EE5FFE4F08
:1000D0005081822F64E60E94B100E82FF0E0EE5FCD
:1000E000FE4FE08140E02AEF30E0A8B985B187609B
:1000F00085B92A98C9010197F1F758B985B1876088
:1001000085B92998C9010197F1F7E8B985B18760E8
:1001100085B92898C9010197F1F74F5F4A3F29F740
:1001200008950F931F938091000184B9809101017C
:1001300087B985B1876085B918B810E00EC01EEF89
:1001400000E0812F0E945600002321F01F3FB9F3E9
:100150001F5F03C0112319F411E001E0F2CF115029
:10016000F0CF991B79E004C0991F961708F0961BF1
:0E017000881F7A95C9F780950895F894FFCFFF
:0C017E00FFFF3F065B4F666D7D077F6F43
:00000001FF
