:100000000C9434000C9449000C9449000C94490061
:100010000C9449000C9449000C9449000C9449003C
:100020000C9449000C9449000C9449000C9449002C
:100030000C9449000C9449000C9449000C9449001C
:100040000C9449000C9449000C9449000C9449000C
:100050000C9449000C9449000C9449000C944900FC
:100060000C9449000C94490011241FBECFEFD8E036
:10007000DEBFCDBF11E0A0E0B1E0EAE3F1E002C0F5
:1000800005900D92AA30B107D9F70E9455000C9443
:100090009B000C9400001AB88FEF87B984B98BB914
:1000A00018B885B1876085B908950E944B004AEF62
:1000B00050E029B1822F64E60E948F00E82FF0E023
:1000C000E050FF4F808188B985B1876085B9289855
:1000D000CA010197F1F7822F6AE00E948F000E9407
:1000E0008F00E92FF0E0E050FF4F808188B985B1A3
:1000F000876085B92998CA010197F1F7822F0E947C
:100100008F00E92FF0E0E050FF4F808188B985B182
:10011000876085B92A98CA010197F1F7CACF991B60
:1001200079E004C0991F961708F0961B881F7A95EE
:0A013000C9F780950895F894FFCFF9
:0A013A003F065B4F666D7D077F6F87
:00000001FF
