:100000000C9434000C9449000C9449000C94490061
:100010000C9449000C9449000C9449000C9449003C
:100020000C9449000C9449000C9449000C9449002C
:100030000C9449000C9449000C9449000C9449001C
:100040000C9449000C9449000C9449000C9449000C
:100050000C9449000C9449000C9449000C944900FC
:100060000C9449000C94490011241FBECFEFD8E036
:10007000DEBFCDBF11E0A0E0B1E0E2E1F1E002C0FF
:1000800005900D92AA30B107D9F70E9455000C9443
:1000900087000C9400001AB88FEF87B984B98BB928
:1000A00018B885B1836085B908950E944B0042EE6F
:1000B00054E029B1243608F023E6822F6AE00E943A
:1000C0007B00E82FF0E0E050FF4F808188B928984E
:1000D000299ACA010197F1F7822F0E947B00E92F2C
:1000E000F0E0E050FF4F808188B92998289ACA0132
:1000F0000197F1F7DECF991B79E004C0991F96179D
:1001000008F0961B881F7A95C9F780950895F89492
:02011000FFCF1F
:0A0112003F065B4F666D7D077F6FAF
:00000001FF
