:100000000C9434000C943E000C943E000C943E0082
:100010000C943E000C943E000C943E000C943E0068
:100020000C943E000C943E000C943E000C943E0058
:100030000C943E000C943E000C943E000C943E0048
:100040000C943E000C943E000C943E000C943E0038
:100050000C943E000C943E000C943E000C943E0028
:100060000C943E000C943E0011241FBECFEFD8E04C
:10007000DEBFCDBF0E9440000C9458000C940000DD
:1000800084B1856084B929E130E0289A2A9880E11A
:1000900097E2F9013197F1F70197D9F728982A9A51
:1000A00080E197E2F9013197F1F70197D9F7EDCFA8
:0400B000F894FFCFF2
:00000001FF
