:100000000C9434000C9451000C9451000C94040195
:100010000C9451000C9451000C9451000C9451001C
:100020000C9451000C9451000C9451000C9451000C
:100030000C9451000C9451000C9451000C945100FC
:100040000C9451000C9451000C9451000C945100EC
:100050000C9451000C9451000C9451000C945100DC
:100060000C9451000C94510011241FBECFEFD8E026
:10007000DEBFCDBF11E0A0E0B1E0E8E8F2E002C0F1
:1000800005900D92AE30B107D9F711E0AEE0B1E0C6
:1000900001C01D92AF30B107E1F70E948C000C94B3
:1000A00042010C940000809101018AB983E084B977
:1000B0008091000187B91BB885B1836A85B918B8EA
:1000C00008951F939C016AE070E00E941B01FC01EF
:1000D000ED5FFE4F1081C9016AE070E00E941B01D4
:1000E000FB01ED5FFE4FE08120E044EF51E018B9E5
:1000F00085B1836085B92998CA010197F1F7E8B9FC
:1001000085B1836085B92898CA010197F1F72F5FFF
:10011000283C69F71F910895CF92DF92EF92FF92EA
:100120000F931F930E945300F89481E0809368001E
:1001300080EA80936B007894EE24E39425E0F22E1D
:1001400004E09EE1C92E12E089E1D82E80910E01D3
:100150008823D9F48BB1887F8BB9EBB809C0892F7C
:1001600090E00E9461008091020181508093020121
:1001700090910201992321F080910E01882379F357
:10018000F0920201E0920E01E1CF8130E9F48BB1EF
:10019000887F8BB91BB9F092020109C0892F90E0CA
:1001A0000E94610080910201815080930201909130
:1001B0000201992321F080910E01813079F3D092D0
:1001C000020110930E01C2CF8BB1887F8BB90BB99E
:1001D0000EC0892F90E00E9461009091020196303C
:1001E00018F48BB180278BB99150909302019091B4
:1001F0000201992321F080910E01823051F3C092C7
:10020000020110920E01A2CF1F920F920FB60F9211
:1002100011248F9310920E011D9902C08FE003C02C
:100220001F9903C08AE0809302018F910F900FBE47
:100230000F901F90189597FB092E07260AD077FD7F
:1002400004D00CD006D000201AF4709561957F4F31
:100250000895F6F7909581959F4F0895AA1BBB1BB3
:1002600051E107C0AA1FBB1FA617B70710F0A61BB6
:10027000B70B881F991F5A95A9F780959095BC01D7
:08028000CD010895F894FFCFB1
:0E028800FFFF1E3F065B4F666D7D077F6F0018
:00000001FF
