:100000000C9434000C9451000C9451000C94C800D2
:100010000C9451000C9451000C9451000C9451001C
:100020000C9451000C9451000C9451000C9451000C
:100030000C9451000C9451000C9451000C945100FC
:100040000C9451000C9451000C9451000C945100EC
:100050000C9451000C9451000C9451000C945100DC
:100060000C9451000C94510011241FBECFEFD8E026
:10007000DEBFCDBF11E0A0E0B1E0E4ECF1E002C0F2
:1000800005900D92AE30B107D9F711E0AEE0B1E0C6
:1000900001C01D92AF30B107E1F70E9488000C94B7
:1000A000E0000C940000809102018AB98091000167
:1000B00084B98091010187B91BB885B1836085B986
:1000C00085B185B918B80895282F6AE00E94D40038
:1000D000E92FF0E0ED5FFE4F4081822F0E94D400B7
:1000E000E82FF0E0ED5FFE4FE0812AEF30E048B905
:1000F00085B1836085B92998C9010197F1F7E8B9FD
:1001000085B1836085B92898C9010197F1F7EFCFD0
:10011000EF92FF920F931F930E945300F89481E097
:100120008093680080EA80936B007894FF24F394B6
:1001300084E0E82E02E080910E01882369F48BB1FF
:10014000887F8BB9FBB81EE1812F0E94640011509B
:10015000D9F7F0920E01EFCF813069F48BB1887F2F
:100160008BB90BB915E0812F0E9464001150D9F7AB
:1001700000930E01E0CF8BB1887F8BB9EBB819E10A
:10018000812F0E9464001150D9F710920E01D3CF35
:100190001F920F920FB60F92112410920E010F9022
:1001A0000FBE0F901F901895991B79E004C0991FFE
:1001B000961708F0961B881F7A95C9F780950895C1
:0401C000F894FFCFE1
:0E01C400FFFFFF1F065B4F666D7D077F670024
:00000001FF
