:100000000C9434000C9451000C9451000C94C500D5
:100010000C9451000C9451000C9451000C9451001C
:100020000C9451000C9451000C9451000C9451000C
:100030000C9451000C9451000C9451000C945100FC
:100040000C9451000C9451000C9451000C945100EC
:100050000C9451000C9451000C9451000C945100DC
:100060000C9451000C94510011241FBECFEFD8E026
:10007000DEBFCDBF11E0A0E0B1E0EEEBF1E002C0E9
:1000800005900D92AC30B107D9F711E0ACE0B1E0CA
:1000900001C01D92AD30B107E1F70E9485000C94BC
:1000A000DD000C940000809101018AB983E084B9DD
:1000B0008091000187B91BB885B1836085B918B8F4
:1000C0000895282F6AE00E94D100E92FF0E0EE5F4A
:1000D000FE4F4081822F0E94D100E82FF0E0EE5FBA
:1000E000FE4FE0812AEF30E048B985B1836085B9E1
:1000F0002998C9010197F1F7E8B985B1836085B9FD
:100100002898C9010197F1F7EFCFEF92FF920F9373
:100110001F930E945300F89481E08093680080EA66
:1001200080936B007894FF24F39484E0E82E02E03F
:1001300080910C01882369F48BB1887F8BB9FBB85F
:100140001EE1812F0E9461001150D9F7F0920C013D
:10015000EFCF813069F48BB1887F8BB90BB915E093
:10016000812F0E9461001150D9F700930C01E0CF5C
:100170008BB1887F8BB9EBB819E1812F0E946100A8
:100180001150D9F710920C01D3CF1F920F920FB6D6
:100190000F92112410920C010F900FBE0F901F9020
:1001A0001895991B79E004C0991F961708F0961BC3
:0E01B000881F7A95C9F780950895F894FFCFBF
:0C01BE00FFFF1F065B4F666D7D077F672B
:00000001FF
