:100000000C9434000C9451000C9451000C94510049
:100010000C9451000C9451000C9451000C9451001C
:100020000C9451000C9451000C9451000C9451000C
:100030000C9451000C9451000C9453000C945100FA
:100040000C9451000C9451000C9451000C945100EC
:100050000C9451000C9451000C9451000C945100DC
:100060000C9451000C94510011241FBECFEFD8E026
:10007000DEBFCDBF11E0A0E0B1E0E6ECF1E002C0F0
:1000800005900D92AE30B107D9F711E0AEE0B1E0C6
:1000900001C01D92A031B107E1F70E9495000C94B8
:1000A000E1000C9400001F920F920FB60F921124E2
:1000B0002F933F934F938F939F9380910E01909135
:1000C0000F01019690930F0180930E012091000182
:1000D00044E6249F900111242817390744F485B180
:1000E00091E0892785B910920F0110920E019F911E
:1000F0008F914F913F912F910F900FBE0F901F90B6
:10010000189581E084B98AB18C7F8AB98FEF87B95D
:100110008BB183708BB918B892E094BD85E085BD32
:1001200090936E0083EC87BD08950E9481007894BF
:10013000209100012A3038F4E22FF0E0ED5FFE4F0D
:10014000808188B901C018B8509102013091010135
:1001500049B1417089B190E0827090709595879512
:10016000982F313079F4442369F42A3058F42F5F02
:100170002A3039F0E22FF0E0ED5FFE4F808188B940
:1001800001C018B8513079F4992369F4223058F03D
:1001900021502A3038F4E22FF0E0ED5FFE4F8081ED
:1001A00088B901C018B8592F342FD2CF8A3038F40B
:1001B000E82FF0E0ED5FFE4F808188B9089518B810
:0601C0000895F894FFCF42
:0E01C6000501013F065B4F666D7D077F6F00F0
:00000001FF
