:100000000C9434000C9451000C9451000C94510049
:100010000C9451000C9451000C9451000C9451001C
:100020000C9451000C9451000C9451000C9451000C
:100030000C9451000C9451000C9453000C945100FA
:100040000C9451000C9451000C9451000C945100EC
:100050000C9451000C9451000C9451000C945100DC
:100060000C9451000C94510011241FBECFEFD8E026
:10007000DEBFCDBF11E0A0E0B1E0E0ECF1E002C0F6
:1000800005900D92AC30B107D9F711E0ACE0B1E0CA
:1000900001C01D92AE30B107E1F70E9495000C94AB
:1000A000DE000C9400001F920F920FB60F921124E5
:1000B0002F933F934F938F939F9380910C01909137
:1000C0000D01019690930D0180930C012091000188
:1000D0004AE0249F900111242817390744F485B180
:1000E00091E0892785B910920D0110920C019F9122
:1000F0008F914F913F912F910F900FBE0F901F90B6
:10010000189581E084B98AB18C7F8AB98FEF87B95D
:100110008BB183708BB918B892E094BD85E085BD32
:1001200090936E0083E187BD08950E9481007894CA
:10013000209100012A3038F4E22FF0E0EF5FFE4F0B
:10014000808188B901C018B844ED50E3489914C0C3
:10015000CA010197F1F748990DC02A3058F42F5F72
:100160002A3039F0E22FF0E0EF5FFE4F808188B94E
:1001700001C018B8489BFECF4999E8CFCA01019742
:10018000F1F749990DC0223058F021502A3038F447
:10019000E22FF0E0EF5FFE4F808188B901C018B810
:1001A000499BFECFD3CF8A3038F4E82FF0E0EF5FE1
:1001B000FE4F808188B9089518B80895F894FFCF4C
:0C01C000093F065B4F666D7D077F6F00F6
:00000001FF
