:100000000C9434000C9451000C9451000C94510049
:100010000C9451000C9451000C9451000C9451001C
:100020000C9451000C9451000C9451000C9451000C
:100030000C9451000C9451000C9470000C945100DD
:100040000C9451000C9451000C9451000C945100EC
:100050000C9451000C9451000C9451000C945100DC
:100060000C9451000C94510011241FBECFEFD8E026
:10007000DEBFCDBF11E0A0E0B1E0E8E3F1E002C0F7
:1000800005900D92A230B107D9F711E0A2E0B1E0DE
:1000900001C01D92A430B107E1F70E9460000C94EA
:1000A0009A000C94000081E084B91AB81BB892E061
:1000B00094BD85E085BD90936E0083EC87BD089567
:1000C0000E94530078948091000190910101489B17
:1000D00001964999FCCF18161906CCF70197F7CF6E
:1000E0001F920F920FB60F9211242F933F938F936D
:1000F0009F938091020190910301019690930301D7
:1001000080930201209100013091010128173907E5
:1001100044F485B191E0892785B9109203011092CA
:1001200002019F918F913F912F910F900FBE0F90E1
:080130001F901895F894FFCF11
:020138000500C0
:00000001FF
