:100000000C9434000C9451000C9451000C94510049
:100010000C9451000C9451000C9451000C9451001C
:100020000C9451000C9451000C9451000C9451000C
:100030000C9451000C9451000C9451000C945100FC
:100040000C9451000C9451000C9451000C945100EC
:100050000C9451000C9451000C9451000C945100DC
:100060000C9451000C94510011241FBECFEFD8E026
:10007000DEBFCDBF11E0A0E0B1E0E8EEF0E002C0ED
:1000800005900D92A230B107D9F711E0A2E0B1E0DE
:1000900001C01D92A330B107E1F70E9453000C94F8
:1000A00072000C9400008091020184B980910001DB
:1000B0008AB98091010185B91BB802C083B18BB99F
:1000C00083B18138E8F7FACF8091020184B9809139
:1000D00000018AB98091010185B91BB8089583B1E7
:0800E0008BB90895F894FFCFDD
:0200E800FFFF18
:00000001FF
