:100000000C9434000C943E000C943E000C943E0082
:100010000C943E000C943E000C943E000C943E0068
:100020000C943E000C943E000C943E000C943E0058
:100030000C943E000C943E000C943E000C943E0048
:100040000C943E000C943E000C943E000C943E0038
:100050000C943E000C943E000C943E000C943E0028
:100060000C943E000C943E0011241FBECFEFD8E04C
:10007000DEBFCDBF0E9440000C9456000C940000DF
:100080008FEF84B915B820E04CE45DE105C025B9D7
:100090002F5FCA010197F1F72F3FC9F725B921500A
:1000A000CA010197F1F72223C9F7F6CFF894FFCFE1
:00000001FF
