:100000000C9434000C943E000C943E000C943E0082
:100010000C943E000C943E000C943E000C943E0068
:100020000C943E000C943E000C943E000C943E0058
:100030000C943E000C943E000C943E000C943E0048
:100040000C943E000C943E000C943E000C943E0038
:100050000C943E000C943E000C943E000C943E0028
:100060000C943E000C943E0011241FBECFEFD8E04C
:10007000DEBFCDBF0E9440000C9474000C940000C1
:100080008AB18A7F8AB984B1856084B958985A9AAE
:1000900085B18A7F85B929E130E010C0289A88E8C7
:1000A00093E1F9013197F1F70197D9F7289888E89A
:1000B00093E1F9013197F1F70197D9F7489BEECF1A
:1000C00010C02A9A88E893E1F9013197F1F7019776
:1000D000D9F72A9888E893E1F9013197F1F7019768
:0C00E000D9F74A9BEECFEACFF894FFCF8F
:00000001FF
