:100000000C9434000C9451000C9451000C94510049
:100010000C9451000C9451000C9451000C9451001C
:100020000C9451000C9451000C9451000C9451000C
:100030000C9451000C9451000C9451000C945100FC
:100040000C9451000C9451000C9451000C945100EC
:100050000C9451000C9451000C9451000C945100DC
:100060000C9451000C94510011241FBECFEFD8E026
:10007000DEBFCDBF11E0A0E0B1E0E0E1F1E002C001
:1000800005900D92A631B107D9F711E0A6E1B1E0D4
:1000900001C01D92A731B107E1F70E9453000C94F3
:1000A00086000C940000809116018AB98091140199
:1000B00087B9809115018BB918B828EA31E699B152
:1000C000A0E0B1E0E0E0F0E08C91981739F4EE0F99
:1000D000FF1FE050FF4F818188B906C0319612960C
:1000E000EA30F10589F704C0C9010197F1F7E7CFBC
:1000F00018B8FACF809116018AB98091140187B996
:10010000809115018BB918B808950895F894FFCF20
:10011000003F0106025B034F0466056D077D08077B
:06012000097F0A6FFFFFDA
:00000001FF
