:100000000C9434000C943E000C943E000C943E0082
:100010000C943E000C943E000C943E000C943E0068
:100020000C943E000C943E000C943E000C943E0058
:100030000C943E000C943E000C943E000C943E0048
:100040000C943E000C943E000C943E000C943E0038
:100050000C943E000C943E000C943E000C943E0028
:100060000C943E000C943E0011241FBECFEFD8E04C
:10007000DEBFCDBF0E9463000C9481000C94000091
:1000800080E480937C0086E880937A000895569AF5
:1000900083E884BD81E085BD089580917C00807FE8
:1000A00080937C0080917A00806480937A008091B4
:1000B0007A0086FDFCCF2091780030917900C9014B
:1000C000089587BD0895CF93DF9380E480937C00EB
:1000D00086E880937A00569A83E884BD81E085BDE6
:1000E000C0E9D1E00E944D00969587959695879539
:1000F00087BD88EE93E0FE013197F1F70197D9F7BC
:06010000F1CFF894FFCFDF
:00000001FF
