:100000000C9434000C9451000C9451000C94510049
:100010000C9451000C9451000C9451000C9451001C
:100020000C9451000C9451000C9451000C9451000C
:100030000C9451000C9451000C9451000C945100FC
:100040000C9451000C9451000C9451000C945100EC
:100050000C9451000C9451000C9451000C945100DC
:100060000C9451000C94510011241FBECFEFD8E026
:10007000DEBFCDBF11E0A0E0B1E0EAE1F1E002C0F7
:1000800005900D92A630B107D9F711E0A6E0B1E0D6
:1000900001C01D92A930B107E1F70E9462000C94E3
:1000A0008B000C9400008091000184B980910601BE
:1000B00087B9809101018AB915B88091020188B988
:1000C0001BB808950E945300409107015091080108
:1000D000209103013091040162E17AE7309909C06F
:1000E0004F5F5F4F4F3F510511F440E050E045B97D
:1000F00006C02150304011F42FEF30E02BB9CB0176
:100100000197F1F7EBCF8091070185B908958091B0
:0A01100003018BB90895F894FFCFA6
:06011A00FFFFFFFF0000E3
:00000001FF
