:100000000C9434000C9449000C9449000C94490061
:100010000C9449000C9449000C9449000C9449003C
:100020000C9449000C9449000C9449000C9449002C
:100030000C9449000C9449000C9449000C9449001C
:100040000C9449000C9449000C9449000C9449000C
:100050000C9449000C9449000C9449000C944900FC
:100060000C9449000C94490011241FBECFEFD8E036
:10007000DEBFCDBF11E0A0E0B1E0EEEAF1E002C0EA
:1000800005900D92A032B107D9F70E9450000C9450
:10009000D5000C9400000E94C2000E9461000895E7
:1000A000CF93DF930E944B00C0E5D3EC0E946B001E
:1000B000803108F08FEF0E94C600CE010197F1F762
:1000C000F5CF8AB18F608AB98AB18F708AB98BB146
:1000D0008FEF8BB908950F931F93CF93DF93E0E0D9
:1000E000F0E001E010E0C2EED4E08BB198010E2EFA
:1000F00002C0220F331F0A94E2F7922F90959823A3
:100100009BB9CE010197F1F789B1807F803F61F102
:1001100040E050E0A82FB0E0BA016C5F7F4FCD0106
:10012000062E02C0959587950A94E2F780FD17C0C8
:1001300021E030E002C0220F331F6A95E2F789B157
:1001400090E082239323892BD1F3EE0FFF1FEE0F54
:10015000FF1FE40FF51FE050FF4F80810EC04F5F7F
:100160005F4F44305105C1F68BB1282B2BB9319626
:10017000E430F10509F0B9CF8FEFDF91CF911F91F6
:100180000F9108958FEF87B918B808958F3038F41C
:10019000E82FF0E0E05FFE4F808188B908958F304E
:0E01A00009F418B8089518B80895F894FFCF20
:1001AE000102030A0405060B0708090C0E000F0DC9
:1001BE003F065B4F666D7D077F6F777C395E7900FA
:00000001FF
